{
	"data": {
		"bytecode": {
			"linkReferences": {},
			"object": "608060405260025f5f6101000a81548160ff0219169083600281111560255760246039565b5b02179055503480156034575f5ffd5b506066565b7f4e487b71000000000000000000000000000000000000000000000000000000005f52602160045260245ffd5b61058d806100735f395ff3fe608060405234801561000f575f5ffd5b5060043610610029575f3560e01c80631c50cc961461002d575b5f5ffd5b61004760048036038101906100429190610215565b610049565b005b60405180604001604052808381526020018281525060015f8581526020019081526020015f205f820151815f0155602082015181600101908161008c9190610488565b50905050505050565b5f604051905090565b5f5ffd5b5f5ffd5b5f819050919050565b6100b8816100a6565b81146100c2575f5ffd5b50565b5f813590506100d3816100af565b92915050565b5f5ffd5b5f5ffd5b5f601f19601f8301169050919050565b7f4e487b71000000000000000000000000000000000000000000000000000000005f52604160045260245ffd5b610127826100e1565b810181811067ffffffffffffffff82111715610146576101456100f1565b5b80604052505050565b5f610158610095565b9050610164828261011e565b919050565b5f67ffffffffffffffff821115610183576101826100f1565b5b61018c826100e1565b9050602081019050919050565b828183375f83830152505050565b5f6101b96101b484610169565b61014f565b9050828152602081018484840111156101d5576101d46100dd565b5b6101e0848285610199565b509392505050565b5f82601f8301126101fc576101fb6100d9565b5b813561020c8482602086016101a7565b91505092915050565b5f5f5f6060848603121561022c5761022b61009e565b5b5f610239868287016100c5565b935050602061024a868287016100c5565b925050604084013567ffffffffffffffff81111561026b5761026a6100a2565b5b610277868287016101e8565b9150509250925092565b5f81519050919050565b7f4e487b71000000000000000000000000000000000000000000000000000000005f52602260045260245ffd5b5f60028204905060018216806102cf57607f821691505b6020821081036102e2576102e161028b565b5b50919050565b5f819050815f5260205f209050919050565b5f6020601f8301049050919050565b5f82821b905092915050565b5f600883026103447fffffffffffffffffffffffffffffffffffffffffffffffffffffffffffffffff82610309565b61034e8683610309565b95508019841693508086168417925050509392505050565b5f819050919050565b5f61038961038461037f846100a6565b610366565b6100a6565b9050919050565b5f819050919050565b6103a28361036f565b6103b66103ae82610390565b848454610315565b825550505050565b5f5f905090565b6103cd6103be565b6103d8818484610399565b505050565b5b818110156103fb576103f05f826103c5565b6001810190506103de565b5050565b601f82111561044057610411816102e8565b61041a846102fa565b81016020851015610429578190505b61043d610435856102fa565b8301826103dd565b50505b505050565b5f82821c905092915050565b5f6104605f1984600802610445565b1980831691505092915050565b5f6104788383610451565b9150826002028217905092915050565b61049182610281565b67ffffffffffffffff8111156104aa576104a96100f1565b5b6104b482546102b8565b6104bf8282856103ff565b5f60209050601f8311600181146104f0575f84156104de578287015190505b6104e8858261046d565b86555061054f565b601f1984166104fe866102e8565b5f5b8281101561052557848901518255600182019150602085019450602081019050610500565b86831015610542578489015161053e601f891682610451565b8355505b6001600288020188555050505b50505050505056fea2646970667358221220f4f657059c0964bbd7b9c294fff72af6b49ad1a808745cbf6dcd602e80478d0b64736f6c634300081e0033",
			"opcodes": "PUSH1 0x80 PUSH1 0x40 MSTORE PUSH1 0x2 PUSH0 PUSH0 PUSH2 0x100 EXP DUP2 SLOAD DUP2 PUSH1 0xFF MUL NOT AND SWAP1 DUP4 PUSH1 0x2 DUP2 GT ISZERO PUSH1 0x25 JUMPI PUSH1 0x24 PUSH1 0x39 JUMP JUMPDEST JUMPDEST MUL OR SWAP1 SSTORE POP CALLVALUE DUP1 ISZERO PUSH1 0x34 JUMPI PUSH0 PUSH0 REVERT JUMPDEST POP PUSH1 0x66 JUMP JUMPDEST PUSH32 0x4E487B7100000000000000000000000000000000000000000000000000000000 PUSH0 MSTORE PUSH1 0x21 PUSH1 0x4 MSTORE PUSH1 0x24 PUSH0 REVERT JUMPDEST PUSH2 0x58D DUP1 PUSH2 0x73 PUSH0 CODECOPY PUSH0 RETURN INVALID PUSH1 0x80 PUSH1 0x40 MSTORE CALLVALUE DUP1 ISZERO PUSH2 0xF JUMPI PUSH0 PUSH0 REVERT JUMPDEST POP PUSH1 0x4 CALLDATASIZE LT PUSH2 0x29 JUMPI PUSH0 CALLDATALOAD PUSH1 0xE0 SHR DUP1 PUSH4 0x1C50CC96 EQ PUSH2 0x2D JUMPI JUMPDEST PUSH0 PUSH0 REVERT JUMPDEST PUSH2 0x47 PUSH1 0x4 DUP1 CALLDATASIZE SUB DUP2 ADD SWAP1 PUSH2 0x42 SWAP2 SWAP1 PUSH2 0x215 JUMP JUMPDEST PUSH2 0x49 JUMP JUMPDEST STOP JUMPDEST PUSH1 0x40 MLOAD DUP1 PUSH1 0x40 ADD PUSH1 0x40 MSTORE DUP1 DUP4 DUP2 MSTORE PUSH1 0x20 ADD DUP3 DUP2 MSTORE POP PUSH1 0x1 PUSH0 DUP6 DUP2 MSTORE PUSH1 0x20 ADD SWAP1 DUP2 MSTORE PUSH1 0x20 ADD PUSH0 KECCAK256 PUSH0 DUP3 ADD MLOAD DUP2 PUSH0 ADD SSTORE PUSH1 0x20 DUP3 ADD MLOAD DUP2 PUSH1 0x1 ADD SWAP1 DUP2 PUSH2 0x8C SWAP2 SWAP1 PUSH2 0x488 JUMP JUMPDEST POP SWAP1 POP POP POP POP POP JUMP JUMPDEST PUSH0 PUSH1 0x40 MLOAD SWAP1 POP SWAP1 JUMP JUMPDEST PUSH0 PUSH0 REVERT JUMPDEST PUSH0 PUSH0 REVERT JUMPDEST PUSH0 DUP2 SWAP1 POP SWAP2 SWAP1 POP JUMP JUMPDEST PUSH2 0xB8 DUP2 PUSH2 0xA6 JUMP JUMPDEST DUP2 EQ PUSH2 0xC2 JUMPI PUSH0 PUSH0 REVERT JUMPDEST POP JUMP JUMPDEST PUSH0 DUP2 CALLDATALOAD SWAP1 POP PUSH2 0xD3 DUP2 PUSH2 0xAF JUMP JUMPDEST SWAP3 SWAP2 POP POP JUMP JUMPDEST PUSH0 PUSH0 REVERT JUMPDEST PUSH0 PUSH0 REVERT JUMPDEST PUSH0 PUSH1 0x1F NOT PUSH1 0x1F DUP4 ADD AND SWAP1 POP SWAP2 SWAP1 POP JUMP JUMPDEST PUSH32 0x4E487B7100000000000000000000000000000000000000000000000000000000 PUSH0 MSTORE PUSH1 0x41 PUSH1 0x4 MSTORE PUSH1 0x24 PUSH0 REVERT JUMPDEST PUSH2 0x127 DUP3 PUSH2 0xE1 JUMP JUMPDEST DUP2 ADD DUP2 DUP2 LT PUSH8 0xFFFFFFFFFFFFFFFF DUP3 GT OR ISZERO PUSH2 0x146 JUMPI PUSH2 0x145 PUSH2 0xF1 JUMP JUMPDEST JUMPDEST DUP1 PUSH1 0x40 MSTORE POP POP POP JUMP JUMPDEST PUSH0 PUSH2 0x158 PUSH2 0x95 JUMP JUMPDEST SWAP1 POP PUSH2 0x164 DUP3 DUP3 PUSH2 0x11E JUMP JUMPDEST SWAP2 SWAP1 POP JUMP JUMPDEST PUSH0 PUSH8 0xFFFFFFFFFFFFFFFF DUP3 GT ISZERO PUSH2 0x183 JUMPI PUSH2 0x182 PUSH2 0xF1 JUMP JUMPDEST JUMPDEST PUSH2 0x18C DUP3 PUSH2 0xE1 JUMP JUMPDEST SWAP1 POP PUSH1 0x20 DUP2 ADD SWAP1 POP SWAP2 SWAP1 POP JUMP JUMPDEST DUP3 DUP2 DUP4 CALLDATACOPY PUSH0 DUP4 DUP4 ADD MSTORE POP POP POP JUMP JUMPDEST PUSH0 PUSH2 0x1B9 PUSH2 0x1B4 DUP5 PUSH2 0x169 JUMP JUMPDEST PUSH2 0x14F JUMP JUMPDEST SWAP1 POP DUP3 DUP2 MSTORE PUSH1 0x20 DUP2 ADD DUP5 DUP5 DUP5 ADD GT ISZERO PUSH2 0x1D5 JUMPI PUSH2 0x1D4 PUSH2 0xDD JUMP JUMPDEST JUMPDEST PUSH2 0x1E0 DUP5 DUP3 DUP6 PUSH2 0x199 JUMP JUMPDEST POP SWAP4 SWAP3 POP POP POP JUMP JUMPDEST PUSH0 DUP3 PUSH1 0x1F DUP4 ADD SLT PUSH2 0x1FC JUMPI PUSH2 0x1FB PUSH2 0xD9 JUMP JUMPDEST JUMPDEST DUP2 CALLDATALOAD PUSH2 0x20C DUP5 DUP3 PUSH1 0x20 DUP7 ADD PUSH2 0x1A7 JUMP JUMPDEST SWAP2 POP POP SWAP3 SWAP2 POP POP JUMP JUMPDEST PUSH0 PUSH0 PUSH0 PUSH1 0x60 DUP5 DUP7 SUB SLT ISZERO PUSH2 0x22C JUMPI PUSH2 0x22B PUSH2 0x9E JUMP JUMPDEST JUMPDEST PUSH0 PUSH2 0x239 DUP7 DUP3 DUP8 ADD PUSH2 0xC5 JUMP JUMPDEST SWAP4 POP POP PUSH1 0x20 PUSH2 0x24A DUP7 DUP3 DUP8 ADD PUSH2 0xC5 JUMP JUMPDEST SWAP3 POP POP PUSH1 0x40 DUP5 ADD CALLDATALOAD PUSH8 0xFFFFFFFFFFFFFFFF DUP2 GT ISZERO PUSH2 0x26B JUMPI PUSH2 0x26A PUSH2 0xA2 JUMP JUMPDEST JUMPDEST PUSH2 0x277 DUP7 DUP3 DUP8 ADD PUSH2 0x1E8 JUMP JUMPDEST SWAP2 POP POP SWAP3 POP SWAP3 POP SWAP3 JUMP JUMPDEST PUSH0 DUP2 MLOAD SWAP1 POP SWAP2 SWAP1 POP JUMP JUMPDEST PUSH32 0x4E487B7100000000000000000000000000000000000000000000000000000000 PUSH0 MSTORE PUSH1 0x22 PUSH1 0x4 MSTORE PUSH1 0x24 PUSH0 REVERT JUMPDEST PUSH0 PUSH1 0x2 DUP3 DIV SWAP1 POP PUSH1 0x1 DUP3 AND DUP1 PUSH2 0x2CF JUMPI PUSH1 0x7F DUP3 AND SWAP2 POP JUMPDEST PUSH1 0x20 DUP3 LT DUP2 SUB PUSH2 0x2E2 JUMPI PUSH2 0x2E1 PUSH2 0x28B JUMP JUMPDEST JUMPDEST POP SWAP2 SWAP1 POP JUMP JUMPDEST PUSH0 DUP2 SWAP1 POP DUP2 PUSH0 MSTORE PUSH1 0x20 PUSH0 KECCAK256 SWAP1 POP SWAP2 SWAP1 POP JUMP JUMPDEST PUSH0 PUSH1 0x20 PUSH1 0x1F DUP4 ADD DIV SWAP1 POP SWAP2 SWAP1 POP JUMP JUMPDEST PUSH0 DUP3 DUP3 SHL SWAP1 POP SWAP3 SWAP2 POP POP JUMP JUMPDEST PUSH0 PUSH1 0x8 DUP4 MUL PUSH2 0x344 PUSH32 0xFFFFFFFFFFFFFFFFFFFFFFFFFFFFFFFFFFFFFFFFFFFFFFFFFFFFFFFFFFFFFFFF DUP3 PUSH2 0x309 JUMP JUMPDEST PUSH2 0x34E DUP7 DUP4 PUSH2 0x309 JUMP JUMPDEST SWAP6 POP DUP1 NOT DUP5 AND SWAP4 POP DUP1 DUP7 AND DUP5 OR SWAP3 POP POP POP SWAP4 SWAP3 POP POP POP JUMP JUMPDEST PUSH0 DUP2 SWAP1 POP SWAP2 SWAP1 POP JUMP JUMPDEST PUSH0 PUSH2 0x389 PUSH2 0x384 PUSH2 0x37F DUP5 PUSH2 0xA6 JUMP JUMPDEST PUSH2 0x366 JUMP JUMPDEST PUSH2 0xA6 JUMP JUMPDEST SWAP1 POP SWAP2 SWAP1 POP JUMP JUMPDEST PUSH0 DUP2 SWAP1 POP SWAP2 SWAP1 POP JUMP JUMPDEST PUSH2 0x3A2 DUP4 PUSH2 0x36F JUMP JUMPDEST PUSH2 0x3B6 PUSH2 0x3AE DUP3 PUSH2 0x390 JUMP JUMPDEST DUP5 DUP5 SLOAD PUSH2 0x315 JUMP JUMPDEST DUP3 SSTORE POP POP POP POP JUMP JUMPDEST PUSH0 PUSH0 SWAP1 POP SWAP1 JUMP JUMPDEST PUSH2 0x3CD PUSH2 0x3BE JUMP JUMPDEST PUSH2 0x3D8 DUP2 DUP5 DUP5 PUSH2 0x399 JUMP JUMPDEST POP POP POP JUMP JUMPDEST JUMPDEST DUP2 DUP2 LT ISZERO PUSH2 0x3FB JUMPI PUSH2 0x3F0 PUSH0 DUP3 PUSH2 0x3C5 JUMP JUMPDEST PUSH1 0x1 DUP2 ADD SWAP1 POP PUSH2 0x3DE JUMP JUMPDEST POP POP JUMP JUMPDEST PUSH1 0x1F DUP3 GT ISZERO PUSH2 0x440 JUMPI PUSH2 0x411 DUP2 PUSH2 0x2E8 JUMP JUMPDEST PUSH2 0x41A DUP5 PUSH2 0x2FA JUMP JUMPDEST DUP2 ADD PUSH1 0x20 DUP6 LT ISZERO PUSH2 0x429 JUMPI DUP2 SWAP1 POP JUMPDEST PUSH2 0x43D PUSH2 0x435 DUP6 PUSH2 0x2FA JUMP JUMPDEST DUP4 ADD DUP3 PUSH2 0x3DD JUMP JUMPDEST POP POP JUMPDEST POP POP POP JUMP JUMPDEST PUSH0 DUP3 DUP3 SHR SWAP1 POP SWAP3 SWAP2 POP POP JUMP JUMPDEST PUSH0 PUSH2 0x460 PUSH0 NOT DUP5 PUSH1 0x8 MUL PUSH2 0x445 JUMP JUMPDEST NOT DUP1 DUP4 AND SWAP2 POP POP SWAP3 SWAP2 POP POP JUMP JUMPDEST PUSH0 PUSH2 0x478 DUP4 DUP4 PUSH2 0x451 JUMP JUMPDEST SWAP2 POP DUP3 PUSH1 0x2 MUL DUP3 OR SWAP1 POP SWAP3 SWAP2 POP POP JUMP JUMPDEST PUSH2 0x491 DUP3 PUSH2 0x281 JUMP JUMPDEST PUSH8 0xFFFFFFFFFFFFFFFF DUP2 GT ISZERO PUSH2 0x4AA JUMPI PUSH2 0x4A9 PUSH2 0xF1 JUMP JUMPDEST JUMPDEST PUSH2 0x4B4 DUP3 SLOAD PUSH2 0x2B8 JUMP JUMPDEST PUSH2 0x4BF DUP3 DUP3 DUP6 PUSH2 0x3FF JUMP JUMPDEST PUSH0 PUSH1 0x20 SWAP1 POP PUSH1 0x1F DUP4 GT PUSH1 0x1 DUP2 EQ PUSH2 0x4F0 JUMPI PUSH0 DUP5 ISZERO PUSH2 0x4DE JUMPI DUP3 DUP8 ADD MLOAD SWAP1 POP JUMPDEST PUSH2 0x4E8 DUP6 DUP3 PUSH2 0x46D JUMP JUMPDEST DUP7 SSTORE POP PUSH2 0x54F JUMP JUMPDEST PUSH1 0x1F NOT DUP5 AND PUSH2 0x4FE DUP7 PUSH2 0x2E8 JUMP JUMPDEST PUSH0 JUMPDEST DUP3 DUP2 LT ISZERO PUSH2 0x525 JUMPI DUP5 DUP10 ADD MLOAD DUP3 SSTORE PUSH1 0x1 DUP3 ADD SWAP2 POP PUSH1 0x20 DUP6 ADD SWAP5 POP PUSH1 0x20 DUP2 ADD SWAP1 POP PUSH2 0x500 JUMP JUMPDEST DUP7 DUP4 LT ISZERO PUSH2 0x542 JUMPI DUP5 DUP10 ADD MLOAD PUSH2 0x53E PUSH1 0x1F DUP10 AND DUP3 PUSH2 0x451 JUMP JUMPDEST DUP4 SSTORE POP JUMPDEST PUSH1 0x1 PUSH1 0x2 DUP9 MUL ADD DUP9 SSTORE POP POP POP JUMPDEST POP POP POP POP POP POP JUMP INVALID LOG2 PUSH5 0x6970667358 0x22 SLT KECCAK256 DELEGATECALL 0xF6 JUMPI SDIV SWAP13 MULMOD PUSH5 0xBBD7B9C294 SELFDESTRUCT 0xF7 0x2A 0xF6 0xB4 SWAP11 DATALOADN 0xA808 PUSH21 0x5CBF6DCD602E80478D0B64736F6C634300081E0033 "
		},
		"gasEstimates": {
			"creation": {
				"codeDepositCost": "284200",
				"executionCost": "24619",
				"totalCost": "308819"
			},
			"external": {
				"setter_Struct(uint256,uint256,string)": "infinite"
			}
		},
		"methodIdentifiers": {
			"setter_Struct(uint256,uint256,string)": "1c50cc96"
		}
	},
	"abi": [
		{
			"inputs": [
				{
					"internalType": "uint256",
					"name": "_idx",
					"type": "uint256"
				},
				{
					"internalType": "uint256",
					"name": "_rollNo",
					"type": "uint256"
				},
				{
					"internalType": "string",
					"name": "name",
					"type": "string"
				}
			],
			"name": "setter_Struct",
			"outputs": [],
			"stateMutability": "nonpayable",
			"type": "function"
		}
	]
}